:020000040800F2
:100000000080012011400008CD170008CF1700081C
:10001000D1170008D3170008D5170008000000000A
:10002000000000000000000000000000D7170008DA
:10003000D917000800000000DB170008DD170008D2
:10004000614000086140000861400008614000080C
:10005000614000086140000861400008E5170008A1
:1000600061400008614000086140000861400008EC
:1000700061400008614000086140000861400008DC
:1000800061400008614000086140000861400008CC
:1000900061400008614000086140000861400008BC
:1000A00061400008614000086140000861400008AC
:1000B000614000086140000861400008614000089C
:1000C000614000086140000861400008614000088C
:1000D000614000086140000861400008614000087C
:1000E000614000086140000861400008614000086C
:1000F000614000086140000861400008614000085C
:10010000614000086140000861400008614000084B
:10011000614000086140000861400008614000083B
:10012000614000086140000861400008614000082B
:10013000614000086140000861400008614000081B
:10014000614000086140000861400008614000080B
:1001500061400008614000086140000861400008FB
:1001600061400008614000086140000861400008EB
:10017000614000086140000800000000000000002D
:08018000614000086140000825
:1001900010B5054C237833B9044B13B10448AFF3C1
:1001A00000800123237010BDE0010020000000004A
:1001B0000C6D000808B5034B1BB103490348AFF3AE
:1001C000008008BD00000000E40100200C6D000864
:1001D00001F0FF01102A2BDB10F0070F08D010F8F8
:1001E000013B013A8B422DD010F0070F42B3F6D1FC
:1001F000F0B441EA012141EA014122F007047FF015
:1002000000070023F0E80256083C85EA010586EA6B
:10021000010685FA47F5A3FA87F586FA47F6A5FAA7
:1002200087F68EB9EED1F0BC01F0FF0102F00702B3
:1002300032B110F8013B013A83EA010313B1F8D15E
:100240000020704701387047002D06BF354603383F
:10025000073815F0010F07D1013015F4807F02BF78
:10026000013015F4C03F0130F0BC0138704700BFC9
:10027000034613F8012B002AFBD1181A01387047E6
:1002800081F0004102E000BF83F0004330B54FEA47
:1002900041044FEA430594EA050F08BF90EA020FB4
:1002A0001FBF54EA000C55EA020C7FEA645C7FEA47
:1002B000655C00F0E2804FEA5454D4EB5555B8BF6A
:1002C0006D420CDD2C4480EA020281EA030382EADB
:1002D000000083EA010180EA020281EA0303362D6D
:1002E00088BF30BD11F0004F4FEA01314FF4801C40
:1002F0004CEA113102D0404261EB410113F0004F52
:100300004FEA03334CEA133302D0524263EB430308
:1003100094EA050F00F0A780A4F10104D5F1200EA6
:100320000DDB02FA0EFC22FA05F2801841F1000101
:1003300003FA0EF2801843FA05F359410EE0A5F1D5
:1003400020050EF1200E012A03FA0EFC28BF4CF006
:10035000020C43FA05F3C01851EBE37101F00045BC
:1003600007D54FF0000EDCF1000C7EEB00006EEBC9
:100370000101B1F5801F1BD3B1F5001F0CD3490853
:100380005FEA30004FEA3C0C04F101044FEA4452AA
:1003900012F5800F80F09A80BCF1004F08BF5FEA31
:1003A000500C50F1000041EB045141EA050130BD11
:1003B0005FEA4C0C404141EB0101013C28BFB1F523
:1003C000801FE9D291F0000F04BF01460020B1FA6E
:1003D00081F308BF2033A3F10B03B3F120020CDA41
:1003E0000C3208DD02F1140CC2F10C0201FA0CF01F
:1003F00021FA02F10CE002F11402D8BFC2F1200C84
:1004000001FA02F120FA0CFCDCBF41EA0C01904039
:10041000E41AA2BF01EB0451294330BD6FEA040482
:100420001F3C1CDA0C340EDC04F11404C4F120026D
:1004300020FA04F001FA02F340EA030021FA04F37F
:1004400045EA030130BDC4F10C04C4F1200220FAD6
:1004500002F001FA04F340EA0300294630BD21FA14
:1004600004F0294630BD94F0000F83F4801306BFDA
:1004700081F480110134013D4EE77FEA645C18BFCE
:100480007FEA655C29D094EA050F08BF90EA020F65
:1004900005D054EA000C04BF1946104630BD91EA5D
:1004A000030F1EBF0021002030BD5FEA545C05D160
:1004B0004000494128BF41F0004130BD14F580049F
:1004C0003CBF01F5801130BD01F0004545F0FE4113
:1004D00041F470014FF0000030BD7FEA645C1ABF48
:1004E000194610467FEA655C1CBF0B46024650EA7F
:1004F000013406BF52EA033591EA030F41F40021AB
:1005000030BD00BF90F0000F04BF0021704730B530
:100510004FF4806404F132044FF000054FF0000105
:1005200050E700BF90F0000F04BF0021704730B5C6
:100530004FF4806404F1320410F0004548BF40429B
:100540004FF000013EE700BF42004FEAE2014FEAF0
:1005500031014FEA02701FBF12F07F4393F07F4FCB
:1005600081F06051704732F07F4208BF704793F0CE
:100570007F4F04BF41F40021704730B54FF46074E1
:1005800001F0004521F000411CE700BF50EA0102E4
:1005900008BF704730B54FF000050AE050EA01028D
:1005A00008BF704730B511F0004502D5404261EBFD
:1005B00041014FF4806404F132045FEA915C3FF43E
:1005C000D8AE4FF003025FEADC0C18BF03325FEADB
:1005D000DC0C18BF033202EBDC02C2F1200300FA8C
:1005E00003FC20FA02F001FA03FE40EA0E0021FAB1
:1005F00002F11444BDE600BF70B54FF0FF0C4CF49F
:10060000E06C1CEA11541DBF1CEA135594EA0C0F50
:1006100095EA0C0F00F0DEF82C4481EA030621EA8B
:100620004C5123EA4C5350EA013518BF52EA0335C6
:1006300041F4801143F4801338D0A0FB02CE4FF078
:100640000005E1FB02E506F00042E0FB03E54FF0A8
:100650000006E1FB03569CF0000F18BF4EF0010EA0
:10066000A4F1FF04B6F5007F64F5407404D25FEA9C
:100670004E0E6D4146EB060642EAC62141EA55514F
:100680004FEAC52040EA5E504FEACE2EB4F1FD0C91
:1006900088BFBCF5E06F1ED8BEF1004F08BF5FEA0F
:1006A000500E50F1000041EB045170BD06F00046C1
:1006B00046EA010140EA020081EA0301B4EB5C046E
:1006C000C2BFD4EB0C0541EA045170BD41F4801166
:1006D0004FF0000E013C00F3AB8014F1360FDEBF8B
:1006E000002001F0004170BDC4F10004203C35DA67
:1006F0000C341BDC04F11404C4F1200500FA05F3EA
:1007000020FA04F001FA05F240EA020001F000428A
:1007100021F0004110EBD37021FA04F642EB060100
:100720005EEA430E08BF20EAD37070BDC4F10C042A
:10073000C4F1200500FA04F320FA05F001FA04F2EE
:1007400040EA020001F0004110EBD37041F10001DA
:100750005EEA430E08BF20EAD37070BDC4F12005E5
:1007600000FA05F24EEA020E20FA04F301FA05F24D
:1007700043EA020321FA04F001F0004121FA04F2F5
:1007800020EA020000EBD3705EEA430E08BF20EAC5
:10079000D37070BD94F0000F0FD101F000464000FF
:1007A00041EB010111F4801F08BF013CF7D041EA81
:1007B000060195F0000F18BF704703F00046520085
:1007C00043EB030313F4801F08BF013DF7D043EA56
:1007D0000603704794EA0C0F0CEA135518BF95EA0C
:1007E0000C0F0CD050EA410618BF52EA4306D1D193
:1007F00081EA030101F000414FF0000070BD50EAB2
:10080000410606BF1046194652EA430619D094EA3B
:100810000C0F02D150EA013613D195EA0C0F05D125
:1008200052EA03361CBF104619460AD181EA030179
:1008300001F0004141F0FE4141F470014FF0000031
:1008400070BD41F0FE4141F4780170BD70B54FF0CC
:10085000FF0C4CF4E06C1CEA11541DBF1CEA13554C
:1008600094EA0C0F95EA0C0F00F0A7F8A4EB05042E
:1008700081EA030E52EA03354FEA013100F0888025
:100880004FEA03334FF0805545EA131343EA1263EE
:100890004FEA022245EA111545EA10654FEA0026A3
:1008A0000EF000419D4208BF964244F1FD0404F55C
:1008B000407402D25B084FEA3202B61A65EB0305B8
:1008C0005B084FEA32024FF480104FF4002CB6EB75
:1008D000020E75EB030E22BFB61A754640EA0C00F5
:1008E0005B084FEA3202B6EB020E75EB030E22BF35
:1008F000B61A754640EA5C005B084FEA3202B6EB76
:10090000020E75EB030E22BFB61A754640EA9C0034
:100910005B084FEA3202B6EB020E75EB030E22BF04
:10092000B61A754640EADC0055EA060E18D04FEAC2
:10093000051545EA16754FEA06164FEAC30343EA62
:1009400052734FEAC2025FEA1C1CC0D111F4801F2F
:100950000BD141EA00014FF000004FF0004CB6E728
:1009600011F4801F04BF01430020B4F1FD0C88BFC7
:10097000BCF5E06F3FF6AFAEB5EB030C04BFB6EBD2
:10098000020C5FEA500C50F1000041EB045170BDC5
:100990000EF0004E4EEA113114EB5C04C2BFD4EBF2
:1009A0000C0541EA045170BD41F480114FF0000E76
:1009B000013C90E645EA060E8DE60CEA135594EAF2
:1009C0000C0F08BF95EA0C0F3FF43BAF94EA0C0FF5
:1009D0000AD150EA01347FF434AF95EA0C0F7FF46A
:1009E00025AF104619462CE795EA0C0F06D152EABE
:1009F00003353FF4FDAE1046194622E750EA4106A2
:100A000018BF52EA43067FF4C5AE50EA41047FF4B2
:100A10000DAF52EA43057FF4EBAE12E74FF0FF3C17
:100A200006E000BF4FF0010C02E000BF4FF0010CE8
:100A30004DF804CD4FEA410C7FEA6C5C4FEA430C61
:100A400018BF7FEA6C5C1BD001B050EA410C0CBFB0
:100A500052EA430C91EA030F02BF90EA020F002012
:100A6000704710F1000F91EA030F58BF994208BF79
:100A700090422CBFD8176FEAE37040F00100704736
:100A80004FEA410C7FEA6C5C02D150EA013C07D18D
:100A90004FEA430C7FEA6C5CD6D152EA033CD3D0D8
:100AA0005DF8040B704700BF8446104662468C46D2
:100AB0001946634600E000BF01B5FFF7B7FF002805
:100AC00048BF10F1000F01BD4DF808EDFFF7F4FF2E
:100AD0000CBF012000205DF808FB00BF4DF808EDB9
:100AE000FFF7EAFF34BF012000205DF808FB00BFDC
:100AF0004DF808EDFFF7E0FF94BF012000205DF8FE
:100B000008FB00BF4DF808EDFFF7CEFF94BF0120B2
:100B100000205DF808FB00BF4DF808EDFFF7C4FFAB
:100B200034BF012000205DF808FB00BF4FEA410CF4
:100B30007FEA6C5C02D150EA013C0AD14FEA430CD7
:100B40007FEA6C5C02D152EA033C02D14FF0000014
:100B500070474FF0010070474FEA410212F5001252
:100B600015D211D56FF47873B3EB625212D94FEAF4
:100B7000C12343F0004343EA505311F0004F23FADE
:100B800002F018BF404270474FF00000704750EA33
:100B9000013005D111F0004008BF6FF000407047F0
:100BA0004FF00000704700BF2DE9F04188B00024ED
:100BB000039404940594069407942E4BDA6C42F047
:100BC0001002DA64DA6C02F010020092009ADA6C19
:100BD00042F00202DA64DA6C02F002020192019A37
:100BE000DA6C42F00402DA64DB6C03F00403029373
:100BF000029B214E012240F20111304601F061FBBF
:100C0000DFF87C8022464FF41071404601F059FB1A
:100C10004FF48073039301250495059502270697E9
:100C200003A9304601F05AFA4FF410730393049568
:100C30000594069403A9404601F050FA03950495E3
:100C40000594069403A9304601F048FA03970B4B2C
:100C50000493059403A9304601F040FA2246214648
:100C6000072001F013FA072001F020FA08B0BDE8D0
:100C7000F08100BF00100240001000480000111079
:100C80000008004872B6FEE708B50F480F4B036036
:100C90004FF482734360002383604FF4E062C260CC
:100CA000036143614FF400728261C3610362436276
:100CB00083620722C26203630823436302F0C9FF11
:100CC00000B908BDFFF7DEFFFC010020003C00403A
:100CD00008B51348134B436640F61463836600233C
:100CE000C3660122026743678367C367C0F8803029
:100CF000C0F88430643001F038FC50B900210A4853
:100D000001F00EFE38B90021074801F037FE20B986
:100D100008BDFFF7B7FFFFF7B5FFFFF7B3FF00BF51
:100D2000FC010020005800406002002000B5B9B06E
:100D30004422002127A803F010FF002122912391D3
:100D40002491259126918822684603F006FF1023FE
:100D5000279301232D9360232F9327A801F02CFFC5
:100D6000D0B90F232293002123912491259126911C
:100D700022A802F037FA88B9802300930023159344
:100D8000684602F03BFC58B94FF4007001F02AFEAF
:100D900040B939B05DF804FBFFF774FFFFF772FF4D
:100DA000FFF770FFFFF76EFF70B588B001F0E4F851
:100DB000FFF7BCFFFFF7F8FEFFF766FFFFF788FFBE
:100DC000444C00224FF48071204601F07AFA4FF42F
:100DD0007A7001F0F3F801224FF48071204601F09F
:100DE00070FA00F099FD0028FBD001F073F80122A1
:100DF0004021394801F065FA00F074FA012001F051
:100E0000DDF800F081F8012001F0D8F800F0B0FA28
:100E100000F098FB0023039303A800F077FA06ABD9
:100E20000DF11A0207A90DF11E0000F0BFFA0DF135
:100E3000120205A90DF1160000F096FB01A800F0C2
:100E4000C5F902A800F008FA00F04CFA234800F0B7
:100E500061FE234EBDF91E10304600F0C7FE214D45
:100E6000BDF91C10284600F0C1FE1F4CBDF91A1038
:100E7000204600F0BBFEBDF918101C4800F0B6FE7D
:100E80001B4800F047FEBDF91610304600F0AEFEDC
:100E9000BDF91410284600F0A9FEBDF91210204635
:100EA00000F0A4FE134800F035FE9DED010A124843
:100EB00000F0FAFE9DED020A104800F0F5FE104821
:100EC00000F028FE03990F4800F090FE00F054FF58
:100ED000A2E700BF0010004800080048706D00083D
:100EE000806D0008846D0008886D00088C6D000816
:100EF000906D0008A06D0008B06D0008BC6D000882
:100F0000C86D0008D86D000870B58EB048F2201387
:100F1000ADF83430AB4E0124009402230DAABE215B
:100F2000304601F081FB32238DF82C3033238DF8CD
:100F30002830009423460BAABE21304601F074FBF2
:100F4000009423460CAABF21304601F02BFC9DF8EB
:100F500030309D4D2B60009423460AAABE213046B6
:100F600001F062FB009423460CAABF21304601F039
:100F700019FC9DF830306B6035238DF824300094D7
:100F8000234609AABE21304601F04EFB00942346B9
:100F90000CAABF21304601F005FC9DF830301A0242
:100FA00002F4407229680A432A609B101B0203F472
:100FB000407369680B436B60D2102A60DB106B6072
:100FC0003C238DF820303D238DF81C3000942346BF
:100FD00008AABE21304601F027FB009423460CAA44
:100FE000BF21304601F0DEFB9DF830302B810094AC
:100FF000234607AABE21304601F016FB0094234683
:101000000CAABF21304601F0CDFB9DF830202B8982
:1010100043EA02232B813E238DF818303F238DF8BD
:1010200014300094234606AABE21304601F0FCFA93
:10103000009423460CAABF21304601F0B3FB9DF873
:1010400030306B810094234605AABE21304601F062
:10105000EBFA009423460CAABF21304601F0A2FB14
:101060009DF830206B8943EA02231BB26B816A68CA
:101070002968521A07EE902AB8EEE77AB5F90820E7
:101080009B1A07EE903AF8EEE77AC7EE276AC5EDAD
:10109000036A30238DF8103031238DF80C30009422
:1010A000234604AABE21304601F0BEFA009423462E
:1010B0000CAABF21304601F075FB9DF830302B742F
:1010C0000094234603AABE21304601F0ADFA0094F5
:1010D00023460CAABF21304601F064FB9DF8303056
:1010E0006B742A7CE2402A74E3406B7436238DF8DB
:1010F000203037238DF81C300094234608AABE21E7
:10110000304601F091FA009423460CAABF213046E4
:1011100001F048FB9DF830306B820094234607AA0B
:10112000BE21304601F080FA009423460CAABF216C
:10113000304601F037FB9DF830206B8A43EA0223EA
:101140006B823A238DF818303B238DF814300094CD
:10115000234606AABE21304601F066FA00942346D3
:101160000CAABF21304601F01DFB9DF83030AB8248
:101170000094234605AABE21304601F055FA00949A
:1011800023460CAABF21304601F00CFB9DF830200D
:10119000AB8A43EA02231BB2AB826A7C297C521AD7
:1011A00007EE902AB8EEE77AB5F912209B1A07EEFF
:1011B000903AF8EEE77AC7EE276AC5ED066A0EB0F8
:1011C00070BD00BF60020020AC020020F0B587B007
:1011D000074628238DF8143029238DF810301C4E33
:1011E00001240094234605AABE21304601F01CFAD2
:1011F0000094234603AABF21304601F0D3FA9DF89C
:101200000C500094234604AABE21304601F00CFA8B
:101210000094234603AABF21304601F0C3FA9DF88B
:101220000C3045EA430307EE903AF8EEE77A094BB3
:1012300093ED067A67EE877A1B7C07EE103AB8EEDC
:10124000C77A77EE277AC7ED007A07B0F0BD00BF06
:1012500060020020AC020020F0B587B007462A23C8
:101260008DF814302B238DF810301C4E012500957D
:101270002B4605AABE21304601F0D6F900952B4633
:1012800003AABF21304601F08DFA9DF80C4000956D
:101290002B4604AABE21304601F0C6F900952B4624
:1012A00003AABF21304601F07DFA9DF80C3044EAD4
:1012B000032424B207EE904AF8EEE77A084B93ED48
:1012C000037A67EE877A93ED007AB8EEC77A77EE05
:1012D000277AC7ED007A07B0F0BD00BF600200209A
:1012E000AC02002000B585B04FF48073ADF80C302F
:1012F00001230093022303AA5221034801F094F929
:1013000005B05DF804FB00BF6002002070B584B03A
:1013100004461E238DF80C300023ADF80830134E20
:10132000012500952B4603AA5221304601F07CF995
:101330000095022302AA5321304601F033FA9DF8AA
:1013400008209DF8093003EB0223143B2360002B97
:1013500008DB2368B3F5FA6F02DD4FF4FA6323600C
:1013600004B070BD00232360F3E700BF60020020DB
:1013700030B585B044F21003ADF80C3040F219538B
:10138000ADF80830084C01250095022303AAD421AA
:10139000204601F049F90095022302AAD4212046F3
:1013A00001F042F905B030BD600200202DE9F043A4
:1013B00087B080460F461646994653238DF80F3066
:1013C00000238DF80E3028238DF814305C4D012455
:1013D0000094234605AAD421284601F025F900945B
:1013E000234604AAD521284601F0DCF99DF81030E7
:1013F000A8F8003029238DF814300094234605AA5C
:10140000D421284601F010F90094234604AAD521DE
:10141000284601F0C7F9B8F900309DF8102043EADA
:101420000223A8F800302A238DF8143000942346B4
:1014300005AAD421284601F0F7F80094234604AA0F
:10144000D521284601F0AEF99DF810303B802B23C2
:101450008DF814300094234605AAD421284601F0C3
:10146000E3F80094234604AAD521284601F09AF90E
:10147000B7F900309DF8102043EA02233B802C236B
:101480008DF814300094234605AAD421284601F093
:10149000CBF80094234604AAD521284601F082F90E
:1014A0009DF8103033802D238DF81430009423469E
:1014B00005AAD421284601F0B7F80094234604AACF
:1014C000D521284601F06EF9B6F900309DF81020BC
:1014D00043EA02233380B8F90030002B29DB1B11CB
:1014E000A8F80030B7F90030002B24DB1B113B803B
:1014F000B6F90020002A20DB12113280104C0A2598
:10150000009501230DF10F02D421204601F08CF843
:10151000009501230DF10E02D521204601F042F97C
:101520009DF80E30C3F38013A9F8003007B0BDE872
:10153000F0830F33D3E70F33D8E70F32DCE700BF78
:101540006002002000B585B02223ADF80C300123E5
:101550000093022303AA3C21024801F065F805B07C
:101560005DF804FB600200202DE9F04184B0804664
:101570000F46164628238DF80C30504D0124009458
:10158000234603AA3C21284601F04EF80094234646
:1015900002AA3D21284601F005F99DF80830A8F877
:1015A000003029238DF80C300094234603AA3C21F7
:1015B000284601F039F80094234602AA3D21284626
:1015C00001F0F0F8B8F900309DF8082043EA022352
:1015D000A8F800302A238DF80C300094234603AA83
:1015E0003C21284601F020F80094234602AA3D2120
:1015F000284601F0D7F89DF808303B802B238DF862
:101600000C300094234603AA3C21284601F00CF834
:101610000094234602AA3D21284601F0C3F8B7F9F9
:1016200000309DF8082043EA02233B802C238DF8EC
:101630000C300094234603AA3C21284600F0F4FF16
:101640000094234602AA3D21284601F0ABF89DF8FC
:10165000083033802D238DF80C300094234603AAE4
:101660003C21284600F0E0FF0094234602AA3D21D9
:10167000284601F097F8B6F900309DF8082043EAB3
:1016800002233380B8F90030002B11DBDB10A8F8FF
:101690000030B7F90030002B0CDBDB103B80B6F9D3
:1016A0000030002B08DBDB10338004B0BDE8F08194
:1016B0000733EBE70733F0E70733F4E76002002076
:1016C00082B00A4B1A6E42F001021A661A6E02F0DC
:1016D00001020092009A9A6D42F080529A659B6DC9
:1016E00003F080530193019B02B070470010024049
:1016F00010B588B0002303930493059306930793D2
:101700000268144B9A4201D008B010BD124CE36C31
:1017100043F00203E364E36C03F002030193019BD3
:101720004FF440630393122304930123059303238F
:1017300006930423079303A9084800F0CFFCA36D88
:1017400043F48003A365A36D03F480030293029B1B
:10175000DAE700BF005800400010024000040048D3
:1017600000B589B000230393049305930693079370
:101770000268144B9A4202D009B05DF804FB03F5ED
:10178000EA339A6D42F400429A659A6D02F400427F
:101790000192019ADA6C42F00402DA64DB6C03F025
:1017A00004030293029B4FF4E05303930223049338
:1017B000032306930623079303A9034800F08EFC36
:1017C000DAE700BF003C004000080048FEE7FEE703
:1017D000FEE7FEE7FEE770477047704708B500F088
:1017E000DBFB08BD08B5022000F072FD014B0122B1
:1017F0001A6008BDD00200200120704708B503F030
:101800000DFA162303604FF0FF3008BD08B54FF006
:10181000FF31FFF7F3FFFEE770B50C4616460025D3
:1018200006E0AFF30080214601F8010B01350C46BC
:10183000B542F6DB304670BD70B50C461646002545
:1018400004E014F8010BAFF300800135B542F8DB7A
:10185000304670BD08B503460B4A126842B10A4AC9
:10186000106803446A46934206D8074A136008BDCD
:10187000054A06491160F2E703F0D0F90C23036032
:101880004FF0FF30F3E700BFC8020020F011002046
:101890004FF0FF3070474FF400534B60002070470B
:1018A00001207047002070470F49D1F8883043F479
:1018B0007003C1F888300D4B1A6842F001021A60BB
:1018C000002098601A6822F0A85222F410221A60B0
:1018D0004FF48052DA601A6822F480221A6098610C
:1018E0004FF000638B60704700ED00E00010024095
:1018F000002393420EDA00B510F803E011F803C09C
:10190000E64505D101339342F6DB01205DF804FB87
:101910000020FBE70120704710B582B01D4B1B680B
:10192000002BFBD000241B4840F8044B4FF47A7284
:10193000214603F012F922460121174800F0C1FCAC
:10194000144C211DD4F8EC230123009302230A44F4
:101950001249134802F0ECF9D4F8EC330233C4F81E
:10196000EC3302210C4800F0A5FC0128E8D001224C
:101970001146094800F0A5FC06220A49201DFFF780
:10198000B7FF20B90022C4F8EC2302B010BD01203B
:10199000FBE700BFD0020020001000480400002038
:1019A000FC01002008000020002393420FDA00B55C
:1019B00003F1010C10F80CE001F803E010F803E06B
:1019C00001F80CE002339342F2DB5DF804FB704750
:1019D000002393420FDA00B503F1010C10F80CE07C
:1019E00001F803E010F803E001F80CE00233934241
:1019F000F2DB5DF804FB70472DE9F04182B0074649
:101A00000D46404B1B68002BFBD03E4E002434603B
:101A1000C6F8EC434FF47A722146301D03F09DF86E
:101A200006F57C784FF4FA720A21404603F095F8E7
:101A30002A4641463846FFF7CBFFC6F8EC4322461C
:101A40000121314800F03DFC2E4CD4F8EC03221D5E
:101A500004F57C71012300930223024401442B48C6
:101A600002F066F9D4F8EC330233C4F8EC33AB423D
:101A7000EADB01221146244800F023FC214B1B68BD
:101A8000002BFBD01F4800240460C0F8EC434FF447
:101A90007A722146043003F060F8224601211A4888
:101AA00000F00FFC174C211DD4F8EC230123009308
:101AB00002230A441649154802F03AF9D4F8EC33E7
:101AC0000233C4F8EC3302210F4800F0F3FB012885
:101AD000E8D0012211460C4800F0F3FB04F2E45573
:101AE0004FF47A7632460021284603F036F8324623
:101AF0002946201DFFF758FF012000F05FFA02B0D1
:101B0000BDE8F081D002002000100048FC01002058
:101B10000400002070B505462F4BD3F8CC39BBB379
:101B20002E4C2046FEF7A4FB864604EB000C2C4E00
:101B30000FCE44F80E00CCF80410CCF80820CCF8F6
:101B40000C303388ACF810302046FEF791FB254B63
:101B50001E8826522946204603F007F82046FEF745
:101B600087FB26522046FEF783FB054626181E4BB0
:101B700007CB60517160B2601B88B381164BD3F8FC
:101B8000CC290132C3F8CC290022C3F8B82D70BD8E
:101B9000114E06F51D644FF47A720021204602F0C2
:101BA000DCFF2223A6F8D0392946204602F0DDFFCB
:101BB0002046FEF75DFB0B4B1B8823522046FEF7A9
:101BC00057FB05462618084B07CB60517160B26081
:101BD0001B88B381D2E700BFD0020020A00C0020F8
:101BE000E46D0008F86D0008FC6D0008F0B585B0E4
:101BF00006460D46274BD3F8B83D63B32C23ADF80A
:101C00000430254C01A9204602F0AFFF2046FEF724
:101C10002FFB224B1F8827523146204602F0A5FF9A
:101C20002046FEF725FB27522046FEF721FB1C4BE2
:101C30001B8823522A461B4901A802F02BFF01A949
:101C4000204602F092FF134AD2F8B83D0133C2F8A1
:101C5000B83D05B0F0BD104C2046FEF709FB0F4B18
:101C60001F8827523146204602F07FFF2046FEF7AC
:101C7000FFFA27522046FEF7FBFA094B1B88235236
:101C80002A46084901A802F005FF01A9204602F0F2
:101C90006CFFD8E7D0020020A00C0020F86D0008EF
:101CA000F46D00080C6E0008F0B585B0064610EE25
:101CB000105A2C4BD3F8B83D83B32C23ADF8043025
:101CC000294C01A9204602F050FF2046FEF7D0FA29
:101CD000264B1F8827523146204602F046FF2046F9
:101CE000FEF7C6FA27522046FEF7C2FA204B1B88A1
:101CF00023522846FEF728FC02460B461D4901A840
:101D000002F0C8FE01A9204602F02FFF154AD2F8C2
:101D1000B83D0133C2F8B83D05B0F0BD124C2046C5
:101D2000FEF7A6FA114B1F8827523146204602F0D3
:101D30001CFF2046FEF79CFA27522046FEF798FA31
:101D40000B4B1B8823522846FEF7FEFB02460B4630
:101D5000084901A802F09EFE01A9204602F005FFF5
:101D6000D4E700BFD0020020A00C0020F86D0008CE
:101D7000F46D0008146E0008F0B5ADF2E47D0621A4
:101D80004B48FFF739FE4B4E3046FEF771FA00F133
:101D90004905FEAC4FF47A773A460021204602F01E
:101DA000DCFE3A46002104A802F0D7FE6522424933
:101DB000204602F060FF002301930293ADF80C303F
:101DC0002A463E4901A802F065FE01A9204602F01C
:101DD000CCFE2046FEF74CFA864604EB000C384D4C
:101DE0000FCD44F80E00CCF80410CCF80820CCF845
:101DF0000C300FCDCCF81000CCF81410CCF8182013
:101E0000CCF81C303146204602F0AFFE2046FEF7EB
:101E10002FFA2C4D04EB000C05F120062C460FCCBC
:101E2000CCF80000CCF80410CCF80820CCF80C302A
:101E300025460CF1100CB442F0D1234607CBCCF868
:101E40000000CCF80410CCF808201A889B78ACF875
:101E50000C208CF80E301C4B049300240194029447
:101E6000ADF80C40FEA8FEF703FA421E134901A884
:101E700002F010FE01A904A802F077FEFEA904A852
:101E800002F073FE04A8FEF7F3F9014604A8FFF779
:101E9000B3FD06210D48FFF7AFFD642000F08EF87A
:101EA0000B4BC3F8B84DC3F8CC490DF2E47DF0BD3F
:101EB0001C6E0008A00C0020246E00088C6E000828
:101EC000906E0008B06E000853333D00E06E0008CD
:101ED000D002002008B509210D48FFF78DFD122121
:101EE0000C48FFF789FD06210B48FFF785FD04210B
:101EF0000A48FFF781FD06210948FFF77DFD1421FF
:101F00000848FFF779FD0A210748FFF775FD08BD6E
:101F1000E86E0008F46E0008086F0008106F0008F3
:101F2000186F0008206F0008386F0008104B1B78EE
:101F30000BB90120704710B504464FF47A70B0FB1E
:101F4000F3F30C4A1068B0FBF3F000F0B3F868B993
:101F50000F2C01D901200AE0002221464FF0FF306A
:101F600000F094F8024B5C60002000E0012010BDFE
:101F7000100000200000002010B5032000F074F8CD
:101F80000020FFF7D3FF10B10124204610BD044606
:101F9000FFF796FBF9E70000034B1B78034A116833
:101FA0000B441360704700BF100000209C100020FD
:101FB000014B1868704700BF9C10002038B50446DC
:101FC000FFF7F6FF0546B4F1FF3F02D0044B1B7844
:101FD0001C44FFF7EDFF401BA042FAD338BD00BF01
:101FE00010000020002807DB00F01F024009012339
:101FF0009340024A42F82030704700BF00E100E001
:10200000002808DB0901C9B200F1604000F5614019
:1020100080F80013704700F00F000901C9B2014BAE
:102020001954704714ED00E000B500F00700C0F14E
:10203000070CBCF1040F28BF4FF0040C031D062B46
:102040000FD9C31E4FF0FF3E0EFA0CF021EA00013B
:1020500099400EFA03FE22EA0E0241EA02005DF800
:1020600004FB0023EEE70000074AD36823F4E06393
:102070001B041B0C000200F4E060034343F0BF6349
:1020800043F40033D360704700ED00E010B5044620
:10209000054BD868C0F30220FFF7C6FF0146204673
:1020A000FFF7AEFF10BD00BF00ED00E008B5FFF781
:1020B00099FF08BD0138B0F1807F0BD24FF0E023CB
:1020C0005861054AF02182F8231000209861072208
:1020D0001A6170470120704700ED00E0F0B583B051
:1020E00000233FE0C56A25EA0C05C4F3C0049C4008
:1020F0002C43C46262E0062400E00024B4403C4368
:102100000235684E46F82540674C2568D44325EAD9
:1021100002064F6817F4803F01D042EA0506624D7F
:102120002E606D6804EA05064F6817F4003F01D081
:1021300042EA05065C4D6E60AD6804EA05064F682C
:1021400017F4801F01D042EA0506574DAE60ED68D6
:102150002C404E6816F4001F01D042EA0504524A92
:10216000D46001330A6832FA03F400F098804FF02B
:10217000010C0CFA03FC1CEA0202F2D04C68651E4A
:10218000012D03D9112C01D0122C12D185685E00CB
:102190000324B44025EA0405CC68B4402C43846091
:1021A000456825EA0C054C68C4F300149C402C4398
:1021B00044604C6804F00305032D93D0C5684FEAD2
:1021C000430E032404FA0EF46FEA040C25EA040516
:1021D0008C6804FA0EF42C43C4604C68022C01D0C5
:1021E000122C0FD1DD08083550F8257003F00706D2
:1021F000B6000F24B44027EA04070C69B4403C43FE
:1022000040F8254004680CEA040C4C6804F0030410
:1022100004FA0EF444EA0C0404604C6814F0805F85
:102220009FD0224C256E45F001052566246E04F0F2
:1022300001040194019C9D08AE1C1A4C54F82670B0
:1022400003F00306B6000F24B44027EA0407B0F1F8
:10225000904F3FF452AF164CA04216D004F5806464
:10226000A04214D004F58064A04212D004F580642A
:10227000A04210D004F58064A0420ED004F5806422
:10228000A0423FF438AF072438E7012436E70224A0
:1022900034E7032432E7042430E705242EE703B0B3
:1022A000F0BD00BF000001400004014000100240EA
:1022B000000400480369194201D001207047002042
:1022C00070470AB1816170478162704770470000B2
:1022D00008B5054B5B69034200D108BD024B58614C
:1022E000FFF7F4FFF9E700BF0004014003689A69B3
:1022F00012F0020F01D000229A6203689A6912F06C
:10230000010F03D19A6942F001029A61704730B41B
:10231000029D046860684FEA555C0CF4806C4CF0D8
:102320007F7C4CF4583C4CF47F7C4CF0030C20EA4E
:102330000C00C1F3090141EA024119432943084352
:10234000606030BC7047F8B505460E461746036816
:102350009B6913F0100F01D10020F8BD2B689C6918
:1023600014F0200F17D1B6F1FF3FF7D0FFF720FE92
:10237000C01BB04201D8002EF0D16B6C43F020039B
:102380006B64202385F84130002385F8423085F8BE
:1023900040300120E1E71022DA612B682024DC6163
:1023A0002846FFF7A3FF2A68536823F0FF7323F43E
:1023B0008B3323F4FF7323F0010353606B6C43F002
:1023C00004036B6485F84140002385F8423085F8AA
:1023D00040300120C1E770B504460D46164623681B
:1023E0009B6913F0020F1DD1324629462046FFF7A4
:1023F000AAFFC8B9B5F1FF3FF1D0FFF7D9FD801BA7
:10240000A84201D8002DEAD1636C43F02003636435
:10241000202384F84130002384F8423084F840308F
:10242000012000E0002070BD0120FCE72DE9F04113
:102430000646884617461D463468A46938EA0404EF
:102440000CBF01240024BC4218D1B5F1FF3FF3D0EA
:10245000FFF7AEFD069BC01AA84201D8002DEBD1B4
:10246000736C43F020037364202386F8413000230B
:1024700086F8423086F84030012000E00020BDE8B8
:10248000F08170B505460C4616462B689B6913F023
:10249000200F1AD1324621462846FFF754FFB0B923
:1024A000FFF786FD801BA04201D8002CEDD16B6C9C
:1024B00043F020036B64202385F84130002385F826
:1024C000423085F84030012070BD0020FCE701203B
:1024D000FAE770B504460D46164623689B6913F06B
:1024E000040F3ED1324629462046FFF72CFF014615
:1024F000002838D123689A6912F0200F13D1FFF712
:1025000057FD801BA84201D8002DE6D1636C43F033
:1025100020036364202384F84130002384F8403092
:102520000121084670BD9A6912F0040F02D0228D75
:10253000002AF6D12022DA6121684B6823F0FF736C
:1025400023F48B3323F4FF7323F001034B60002348
:10255000636484F8412084F8423084F840300121DB
:10256000DFE70021DDE70121DBE7002859D010B5C6
:10257000044690F84130002B43D0242384F84130A6
:102580002268136823F0010313606368226823F054
:10259000706313612268936823F400439360E368D7
:1025A000012B33D0A368226843F404439360E368AB
:1025B000022B31D02268536843F0007343F4004388
:1025C00053602268D36823F40043D36023696269AF
:1025D0001343A169226843EA0123D360E369216AB6
:1025E00022680B4313602268136843F001031360F1
:1025F00000206064202384F84130206384F8420086
:1026000010BD80F84030FFF773F8B6E7A368226882
:1026100043F400439360CAE723684FF400625A60B2
:10262000C8E70120704700002DE9F04782B00F464F
:102630000A9E90F84110C9B2202940F0A3800446B8
:102640009046994690F84030012B00F09F804FF063
:10265000010A80F840A0FFF7ABFC05460090192363
:1026600052464FF400412046FFF7E0FE002840F0BC
:102670008F80212384F84130102384F842300023D6
:102680006364C4F82480A4F82A906363638D9BB2CA
:10269000FF2B0AD9FF222285414B00934FF0807314
:1026A00039462046FFF733FE18E0628D92B222854C
:1026B0003B4B00934FF00073D2B239462046FFF7F0
:1026C00026FE0BE0628D92B22285002300934FF02C
:1026D0000073D2B239462046FFF719FE638D9BB2D4
:1026E000002B33D02A4631462046FFF774FE0028DF
:1026F00050D1626A236812789A62636A0133636216
:10270000638D9BB2013B9BB26385238D013B9BB2E2
:102710002385628D92B2002AE0D0002BDED1009595
:102720003346002280212046FFF780FEA0BB638D48
:102730009BB2FF2BC6D9FF222285002300934FF0C6
:10274000807339462046FFF7E2FDC7E72A46314647
:102750002046FFF796FE08BB23682022DA61216835
:102760004B6823F0FF7323F48B3323F4FF7323F0C0
:1027700001034B6084F84120002384F8423084F840
:10278000403000E0022002B0BDE8F0870220FAE706
:102790000120F8E70120F6E70120F4E70120F2E745
:1027A000002000802DE9F04782B00F460A9E90F885
:1027B0004110C9B2202940F0A280044690469946B3
:1027C00090F84030012B00F09E804FF0010A80F815
:1027D00040A0FFF7EDFB05460090192352464FF449
:1027E00000412046FFF722FE002840F08E80222381
:1027F00084F84130102384F8423000236364C4F825
:102800002480A4F82A906363638D9BB2FF2B0AD9BE
:10281000FF222285414B00934FF0807339462046BA
:10282000FFF775FD18E0628D92B222853B4B009355
:102830004FF00073D2B239462046FFF768FD0BE037
:10284000628D92B22285002300934FF00073D2B2C2
:1028500039462046FFF75BFD638D9BB2002B32D0DB
:102860002A4631462046FFF734FE00284FD1236820
:102870005A6A636A1A70636A01336362228D013A8D
:1028800092B22285638D9BB2013B9BB26385638DBF
:102890009BB2002BE0D0002ADED100953346802188
:1028A0002046FFF7C3FDA0BB638D9BB2FF2BC7D9AA
:1028B000FF222285002300934FF080733946204683
:1028C000FFF725FDC8E72A4631462046FFF7D9FD28
:1028D00008BB23682022DA6121684B6823F0FF736C
:1028E00023F48B3323F4FF7323F001034B6084F84C
:1028F0004120002384F8423084F8403000E0022078
:1029000002B0BDE8F0870220FAE70120F8E70120D5
:10291000F6E70120F4E70120F2E700BF0024008081
:10292000034690F84120D2B2202A23D190F84020CB
:10293000012A21D0012280F84020242280F8412061
:102940000068026822F0010202601868026822F43E
:1029500080520260186802681143016019680A68B1
:1029600042F001020A60202283F84120002083F80F
:10297000400070470220704702207047034690F8DD
:102980004120D2B2202A21D190F84020012A1FD024
:10299000012280F84020242280F84120006802684B
:1029A00022F0010202601868026822F4706242EAB2
:1029B0000122026019680A6842F001020A602022BE
:1029C00083F84120002083F84000704702207047C0
:1029D00002207047024B186800F4C060704700BFC7
:1029E00000700040B0F5007F0FD01F4B1B6803F450
:1029F000C063B3F5806F34D01B4A136823F4C063FF
:102A000043F48063136000207047174B1B6803F486
:102A1000C063B3F5007F20D0134A136823F4C0636A
:102A200043F400731360114B1B68322202FB03F363
:102A30000F4AA2FB03239B0C013300E0013B0A4A2F
:102A4000526912F4806F01D0002BF7D1064B5B69FD
:102A500013F4806F03D100207047002070470320DB
:102A600070470020704700BF007000400000002049
:102A700083DE1B4330B583B00446204B9B6D13F0BF
:102A8000805F0BD0FFF7A6FFB0F5007F17D0802C3A
:102A90001FD82DD0702C2DD000211BE0174DAB6D11
:102AA00043F08053AB65AB6D03F080530193019B02
:102AB000FFF790FFAB6D23F08053AB65E4E7802C0C
:102AC00003D9A02C03D9022104E0002102E0012156
:102AD00000E003210A4A136823F007030B43136045
:102AE000136803F007038B4206D1002003B030BD0A
:102AF0000221EFE70121EDE70120F7E70010024096
:102B000000200240284A9368D26802F0030213F0C2
:102B10000C030AD00C2B06D0042B1FD0082B20D07E
:102B20000020024610E0012AF6D11F4A126812F076
:102B3000080F0CD11C4AD2F89420C2F303221B497F
:102B400051F8222043B100200C2B0DD07047164ABB
:102B50001268C2F30312F2E71046F5E714480022A8
:102B6000F2E714480022EFE70F4BDB6803F00303A2
:102B7000022B16D0032B00D10E4A0B49CB68C3F3AE
:102B800002130133C868C0F3062002FB00F0B0FB5B
:102B9000F3F0CB68C3F3416301335B00B0FBF3F0A8
:102BA000D4E7034AE9E700BF00100240286D00089F
:102BB0000024F40000127A00002800F0FC82F0B536
:102BC00083B00446964B9D6805F00C05DE6806F060
:102BD0000306036813F0100F5AD0E5B10C2D18D07E
:102BE000A369002B00F0BB808D4A136843F00103FA
:102BF0001360FFF7DDF90746894B1B6813F0020FDE
:102C000040F09A80FFF7D4F9C01B0228F4D90320C2
:102C1000DCE2012EE4D1824B1B6813F0020F03D0DB
:102C2000A369002B00F0C982206A7D4B1B6813F05A
:102C3000080F5BD07A4B1B6803F0F00398425CD816
:102C4000774B1A6842F008021A601A6822F0F00204
:102C5000216A0A431A605A6822F47F42E16942EA13
:102C600001225A60002D60D0FFF74CFF6C4B9B682F
:102C7000C3F303136B4AD35C03F01F03D8406A4BC2
:102C800018606A4B1868FFF751F9002840F09E82DF
:102C9000236813F0010F00F08180082D75D00C2DF2
:102CA00071D06368B3F5803F00F09780B3F5A02F33
:102CB00000F099805A4B1A6822F480321A601A6820
:102CC00022F480221A606368002B00F09980FFF7DD
:102CD0006FF90746524B1B6813F4003F5ED1FFF7B4
:102CE00067F9C01B6428F5D903206FE24C4BD3F879
:102CF00094301B0903F0F003A0E7FFF7BBFE0028A8
:102D000040F05D82464B1A6842F008021A601A6869
:102D100022F0F002216A0A431A605A6822F47F42C4
:102D2000E16942EA01225A609EE7206AFFF7A2FEAB
:102D3000002899D0012049E2394B1A6842F0080274
:102D40001A601A6822F0F002216A0A431A605A686F
:102D500022F47F42E16942EA01225A6098E7304A50
:102D6000136823F001031360FFF722F907462C4B89
:102D70001B6813F0020F8BD0FFF71AF9C01B022853
:102D8000F5D9032022E2032E8BD1254B1B6813F4C7
:102D9000003F03D06368002B00F01382236813F018
:102DA000020F58D0042D45D00C2D41D0E368002BE4
:102DB00077D01B4A136843F480731360FFF7F8F869
:102DC0000646174B1B6813F4806F61D1FFF7F0F8CC
:102DD000801B0228F5D90320F8E1114A136843F457
:102DE000803313606FE703F18043A3F53C331A6827
:102DF00042F480221A601A6842F480321A6062E754
:102E0000FFF7D6F80746064B1B6813F4003FC5D002
:102E1000FFF7CEF8C01B6428F5D90320D6E100BF28
:102E200000100240586D000800000020140000202F
:102E3000022EBBD1954B1B6813F4806F03D0E3685F
:102E4000002B00F0C081914A536823F0F8532169A8
:102E500043EA01635360236813F0080F4CD06369A1
:102E60009BB38A4AD2F8943043F00103C2F89430FD
:102E7000FFF79EF80646854BD3F8943013F0020F07
:102E80003AD1FFF795F8801B0228F4D903209DE181
:102E90007E4A536823F0F853216943EA0163536083
:102EA000D9E77A4A136823F480731360FFF780F838
:102EB0000646764B1B6813F4806FCCD0FFF778F88A
:102EC000801B0228F5D9032080E1704AD2F89430A3
:102ED00023F00103C2F89430FFF76AF806466B4B03
:102EE000D3F8943013F0020F06D0FFF761F8801B7F
:102EF0000228F4D9032069E1236813F0040F7AD083
:102F0000624B9B6D13F0805F36D1604B9A6D42F03F
:102F100080529A659B6D03F080530193019B0126BB
:102F20005B4B1B6813F4807F28D0A368012B39D03A
:102F3000052B3FD0554BD3F8902022F00102C3F867
:102F40009020D3F8902022F00402C3F89020A368C8
:102F5000002B3DD0FFF72CF807464C4BD3F89030B0
:102F600013F0020F46D1FFF723F8C01B41F288335C
:102F70009842F2D9032029E10026D1E7444A136898
:102F800043F480731360FFF713F80746404B1B6848
:102F900013F4807FC9D1FFF70BF8C01B0228F5D9C5
:102FA000032013E1394AD2F8903043F00103C2F80C
:102FB0009030CCE7354BD3F8902042F00402C3F8B0
:102FC0009020D3F8902042F00102C3F89020BEE791
:102FD000FEF7EEFF07462D4BD3F8903013F0020FAB
:102FE00008D0FEF7E5FFC01B41F288339842F2D9C2
:102FF0000320EBE06EBBA36A002B00F0E680022BFF
:103000002DD00C2D00F0E880204B1A6822F0807241
:103010001A601B6813F0205F04D11C4AD36823F0A8
:103020000303D360194AD36823F0887323F48033F1
:10303000D360FEF7BDFF0446144B1B6813F0007FFE
:1030400000F0B780FEF7B4FF001B0228F4D903207C
:10305000BCE00E4A936D23F080539365CBE70B4B96
:10306000DB6803F00301E26A914213D00C2D00F0FB
:10307000AF80064B1B6813F0806F40F0AB80034BB2
:103080001B6813F0805F31D001209FE000100240E8
:103090000070004003F07002216B0139B2EB011F98
:1030A000E4D103F4FE42616BB2EB012FDED103F4F5
:1030B0000031A26B073A18BF01229142D6D103F426
:1030C000C001E26B5208013AB1EB425FCED103F08E
:1030D000C063226C5208013AB3EB426FC6D13F4B3A
:1030E0001B6813F0007F4AD000206FE03B4A136852
:1030F00023F080731360FEF75BFF0546374B1B68B8
:1031000013F0007F06D0FEF753FF401B0228F5D9CD
:1031100003205BE0314AD36831491940E36A206BF0
:10312000013843EA0013606B43EA0023E06B400878
:10313000013843EA4053206C4008013843EA4063B9
:10314000A06B000943EA40431943D160136843F080
:1031500080731360D36843F08073D360FEF728FF59
:1031600004461E4B1B6813F0007F06D1FEF720FFBC
:10317000001B0228F5D9032028E0002026E0174B89
:103180001A6842F080721A60DA6842F08072DA607F
:10319000FEF70EFF0446114B1B6813F0007F06D1AB
:1031A000FEF706FF031B022BF5D903200EE00020DB
:1031B0000CE000200AE001207047012006E0012019
:1031C00004E0012002E0012000E0002003B0F0BD97
:1031D0000120FBE70120F9E70120F7E7001002409A
:1031E0008C809DF9002800F0988070B50C4605464B
:1031F0004E4B1B6803F007038B420BD24B4A1368FC
:1032000023F007030B431360136803F007038B429B
:1032100040F085802B6813F0010F39D06B68032BC9
:1032200009D0022B26D063BB414A126812F0020F6C
:1032300006D1012070E03E4A126812F0007F70D083
:103240003B498A6822F0030213438B60FEF7B0FE0D
:103250000646374B9B6803F00C036A68B3EB820F9A
:1032600016D0FEF7A5FE801B41F288339842F0D9B4
:10327000032051E02E4A126812F4003FE0D10120F1
:103280004AE02B4A126812F4806FD9D1012043E042
:103290002B6813F0020F06D0254A936823F0F00341
:1032A000A9680B439360214B1B6803F00703A342FB
:1032B0000AD91E4A136823F00703234313601368D7
:1032C00003F00703A3422ED12B6813F0040F06D09E
:1032D000174A936823F4E063E9680B4393602B6813
:1032E00013F0080F07D0124A936823F4605329693A
:1032F00043EAC1039360FFF705FC0D4B9B68C3F3E2
:1033000003130C4AD35C03F01F03D8400A4B186028
:103310000A4B1868FEF70AFE70BD012070470120B5
:10332000FAE70120F8E70120F6E700BF002002409D
:1033300000100240586D000800000020140000201A
:10334000F8B504460D46594BDB6813F0030F17D050
:10335000564BDB6803F003030268934201D0012659
:1033600016E0002A00F09F80504BDB68C3F3021385
:1033700001334268934201D0012609E000261BE098
:103380000368022B58D0032B5DD0012B02D00126FD
:103390003046F8BD454A126812F0020F5FD043482C
:1033A000C26822F073026168013943EA01131343D2
:1033B000C3600026002EEBD13C4A136823F08063E3
:1033C0001360FEF7F5FD0746384B1B6813F0006FDE
:1033D00005D0FEF7EDFDC31B022BF5D90326002E09
:1033E000D6D1002D3DD131490B6923F41F3323F48D
:1033F0004073A068E2681209520442EA00221343B3
:103400000B612A4A136843F080631360FEF7D0FD16
:103410000546264B1B6813F0006F05D1FEF7C8FD6B
:10342000401B0228F5D90326002EB1D11F4A13698B
:10343000A1690B431361ABE71C4A126812F4806F59
:10344000ADD10126A4E7194A126812F4003FA6D1B3
:10345000164A126812F4802FA1D1012698E701269E
:10346000A8E7012D0FD01148026922F0C06222F4B2
:10347000FE42A16863695B08013B5B0643EA0123E6
:103480001A430261BDE70948026922F4C00222F42E
:10349000FE42A16823695B08013B5B0543EA012307
:1034A0001A430261ADE7012672E700BF0010024037
:1034B000F8B504460D46504BDB6813F0030F17D0E8
:1034C0004D4BDB6803F003030268934201D00126F1
:1034D00016E0002A00F08D80474BDB68C3F302132F
:1034E00001334268934201D0012609E000261BE027
:1034F0000368022B58D0032B5DD0012B02D001268C
:103500003046F8BD3C4A126812F0020F5FD03A48CC
:10351000C26822F073026168013943EA0113134360
:10352000C3600026002EEBD1334A136823F080538A
:103530001360FEF73DFD07462F4B1B6813F0005F3D
:1035400005D0FEF735FDC31B022BF5D90326002E4F
:10355000D6D1002D3DD128494B6923F41F3323F4E4
:103560004073A068E2681209520442EA0022134341
:103570004B61214A136843F080531360FEF718FD36
:1035800005461D4B1B6813F0005F05D1FEF710FDCB
:10359000401B0228F5D90326002EB1D1164A5369E3
:1035A00061690B435361ABE7134A126812F4806FF1
:1035B000ADD10126A4E7104A126812F4003FA6D14B
:1035C0000D4A126812F4802FA1D1012698E7012636
:1035D000A8E70948426922F0C06222F4FE42A168CD
:1035E00023695B08013B5B0643EA01231A434261FE
:1035F000BFE7012684E700BF001002402DE9F0413B
:1036000082B00446036813F4006F33D0436EB3F501
:10361000000F1FD00CD823B3B3F5800F05D10021C4
:103620002030FFF745FF064620E001273E4623E015
:10363000B3F5400F0BD10026604AD2F8883023F44E
:103640004003616E0B43C2F88830002714E0012765
:103650003E4611E0594AD36843F48033D3600026D4
:10366000EAE700210430FFF76BFE0646002EE3D0A8
:10367000374601E000273E46236813F4805F30D0D0
:10368000A36EB3F1007F1FD00DD81BB3B3F1807FC1
:1036900006D1002104F12000FFF70AFF064605E0ED
:1036A00001273E461DE0B3F1407F0AD1C6B9434A27
:1036B000D2F8883023F04073A16E0B43C2F88830F3
:1036C0000FE001273E460CE03C4AD36843F48033C8
:1036D000D360EBE70021201DFFF732FE0646E5E749
:1036E0003746236813F4003F71D0344B9B6D13F0C1
:1036F000805F4ED1314B9A6D42F080529A659B6D3E
:1037000003F080530193019B4FF001082C4A13688A
:1037100043F480731360FEF74BFC0546284B1B688F
:1037200013F4807F05D1FEF743FC401B0228F5D936
:103730000326002E46D1214BD3F8903013F440736A
:1037400016D0D4F884209A4212D01C4AD2F8903075
:1037500023F44073D2F8901041F48031C2F89010F5
:10376000D2F8901021F48031C2F89010C2F8903055
:1037700013F0010F10D1002E40F027810F4AD2F82C
:10378000903023F44073D4F884100B43C2F8903087
:1037900019E04FF00008B9E7FEF70AFC0546074BB1
:1037A000D3F8903013F0020FE5D1FEF701FC401B77
:1037B00041F288339842F2D90326DCE70010024038
:1037C000007000403746B8F1000F40F000812368D8
:1037D00013F0010F08D09D4AD2F8883023F003037C
:1037E000A16B0B43C2F88830236813F0020F08D096
:1037F000964AD2F8883023F00C03E16B0B43C2F8F1
:103800008830236813F0040F08D0904AD2F888302B
:1038100023F03003216C0B43C2F88830236813F087
:10382000080F08D0894AD2F8883023F0C003616CB1
:103830000B43C2F88830236813F0100F08D0834A76
:10384000D2F8883023F44073A16C0B43C2F888305F
:10385000236813F0200F08D07C4AD2F8883023F474
:103860004063E16C0B43C2F88830236813F4007F97
:1038700008D0764AD2F8883023F44023E16D0B4318
:10388000C2F88830236813F4806F08D06F4AD2F8EA
:10389000883023F44013216E0B43C2F8883023682C
:1038A00013F0400F08D0694AD2F8883023F440530F
:1038B000216D0B43C2F88830236813F0800F08D0C5
:1038C000624AD2F8883023F44043616D0B43C2F85A
:1038D0008830236813F4807F08D05C4AD2F888309F
:1038E00023F44033A16D0B43C2F88830236813F4EE
:1038F000005F0FD0554AD2F8883023F04063E16E64
:103900000B43C2F88830E36EB3F1006F65D0B3F1BA
:10391000806F67D0236813F4002F0FD04B4AD2F882
:10392000883023F04063216F0B43C2F88830236F47
:10393000B3F1006F5ED0B3F1806F60D0236813F4F1
:10394000802F0FD0414AD2F8883023F04063616F56
:103950000B43C2F88830636FB3F1006F57D0B3F1F7
:10396000806F59D0236813F4804F0FD0374AD2F8B4
:10397000883023F04053A16F0B43C2F88830A36F07
:10398000B3F1805F50D0B3F1005F55D0236813F4DA
:10399000004F08D02D4AD2F8883023F08043E16FE1
:1039A0000B43C2F88830236813F4803F09D0274ABC
:1039B000D2F8883023F00043D4F880100B43C2F8CB
:1039C0008830384602B0BDE8F0813746FBE61F4A32
:1039D000936D23F080539365F9E6D36843F4801325
:1039E000D36097E70121201DFFF7AAFC002891D0A2
:1039F00007468FE7D36843F48013D3609EE7012125
:103A0000201DFFF79DFC002898D0074696E7D36855
:103A100043F48013D360A5E70121201DFFF790FC3C
:103A200000289FD007469DE70221201DFFF788FC54
:103A30000028ABD00746A9E7022104F12000FFF7D8
:103A400037FD0028A2D00746A0E700BF00100240C3
:103A50002DE9F04782B00546884617461E46FEF718
:103A6000A7FA0A9B1B1A03EB0609FEF7A1FA824686
:103A7000284B1B68C3F3CB3309FB03F301932B687B
:103A80009C6838EA04040CBF01230023BB423DD0EC
:103A9000B6F1FF3FF3D0FEF78BFAA0EB0A004845E2
:103AA00007D2019A02B14A46019B013B019391461C
:103AB000E5E72A68536823F0E00353606B68B3F5C9
:103AC000827F0BD0AB6AB3F5005F14D0012385F879
:103AD0005D30002385F85C30032018E0AB68B3F557
:103AE000004F02D0B3F5806FECD12A68136823F041
:103AF00040031360E6E72A68136823F40053136059
:103B00002A68136843F400531360DFE7002002B013
:103B1000BDE8F087000000202DE9F04782B007469D
:103B20000D4616469846FEF743FA0A9B1B1A03EB0E
:103B30000809FEF73DFA82462C4B1B6803EB830312
:103B4000C3EBC3031B0D09FB03F3019302E0B8F1C0
:103B5000FF3F0CD13B689C6804EA050CB44541D09A
:103B6000B5F5C06FF3D1002EF1D11B7BEFE7FEF767
:103B70001FFAA0EB0A00484507D2019A02B14A4653
:103B8000019B013B01939146E4E73A68536823F0B7
:103B9000E00353607B68B3F5827F0BD0BB6AB3F55B
:103BA000005F14D0012387F85D30002387F85C3074
:103BB000032018E0BB68B3F5004F02D0B3F5806F67
:103BC000ECD13A68136823F040031360E6E73A68E3
:103BD000136823F4005313603A68136843F40053E6
:103BE0001360DFE7002002B0BDE8F087000000208E
:103BF00070B582B004460D46164600920B46002270
:103C00004FF4C051FFF788FFB0B900962B46002251
:103C100080212046FFF71CFFA8B900962B46002202
:103C20004FF4C0612046FFF777FF50B1236E43F099
:103C300020032366032004E0236E43F02003236661
:103C4000032002B070BD236E43F0200323660320DF
:103C5000F7E700286AD010B50446436A33B94368D1
:103C6000B3F5827F05D00023C36102E00023036126
:103C700043610023A36294F85D30002B4DD00223F2
:103C800084F85D302268136823F040031360E36812
:103C9000B3F5E06F47D90022B3F5706F04D0B3F5E8
:103CA000E06F01D00023A362636803F48273A1680C
:103CB00001F404410B43216901F002010B436169E6
:103CC00001F001010B43A16901F400710B43E169AB
:103CD00001F038010B43216A01F080010B43A16A16
:103CE00001F4005120680B430360638B03F004036D
:103CF000616A01F010010B43616B01F008010B4395
:103D0000E16801F470610B4321681A434A600020A6
:103D10002066012384F85D3010BD84F85C302046B5
:103D2000FDF71EFDABE74FF48052B5E70120704769
:103D30002DE9F8431F46089D90F85C30012B00F0F8
:103D40006481044688469146012380F85C30FEF782
:103D50002FF9064694F85D30DBB26268012B0AD079
:103D6000B2F5827F40F03881A268002A40F03D81A0
:103D7000042B40F03C81B8F1000F00F03A81B9F11A
:103D8000000F00F03881002F00F0378194F85D308B
:103D9000DBB2042B02D0052384F85D3000232366B8
:103DA000C4F84090A4F84670A4F84470C4F8388071
:103DB000E787A787E3642365E368B3F5E06F01D87D
:103DC000012F23D92268536823F48053536023685A
:103DD0001A6812F0400F03D11A6842F040021A60CC
:103DE000E368B3F5E06F58D963680BB1012F0BD1CD
:103DF000A26B23681288DA60A36B0233A363E38F9C
:103E00009BB2013B9BB2E387012731E022685368F4
:103E100043F480535360DAE7A26B1288DA60A36B35
:103E20000233A363E38F9BB2013B9BB2E38700277E
:103E300023689A6812F0010F11D0B4F8462092B2AC
:103E40006AB1DA68236C1A80236C02332364B4F8F5
:103E500046309BB2013B9BB2A4F846300127FEF7E7
:103E6000A7F8831BAB4203D3B5F1FF3F40F0C780F7
:103E7000E38F9BB22BB9B4F846309BB2002B00F015
:103E8000A18023689A6812F0020FD1D0E28F92B21B
:103E9000002ACDD0002FCBD0BEE763680BB1012F35
:103EA0000FD1E38F9BB2012B0DD9A26B236812882F
:103EB000DA60A36B0233A363E38F9BB2023B9BB236
:103EC000E387012749E0A26B236812781A73A36B7A
:103ED0000133A363E38F9BB2013B9BB2E387F0E71F
:103EE000E28F92B2012A0CD9A26B1288DA60A36B1E
:103EF0000233A363E38F9BB2023B9BB2E3870027AD
:103F00003DE0A26B12781A73A36B0133A363E38FB6
:103F10009BB2013B9BB2E387002730E022685368E5
:103F200043F48053536001270DE0226C1B7B137018
:103F3000236C01332364B4F846309BB2013B9BB23F
:103F4000A4F846300127FEF733F8801BA84202D3BD
:103F5000B5F1FF3F55D1002D55D0E38F9BB223B96A
:103F6000B4F846309BB2002B2CD023689A6812F02C
:103F7000020F04D0E28F92B20AB1002FB0D12368B1
:103F80009A6812F0010FDED0B4F8462092B2002AEF
:103F9000D9D0B4F8462092B2012AC6D9DA68236C87
:103FA0001A80236C02332364B4F846309BB2023B80
:103FB0009BB2A4F84630B4F846309BB2012BADD981
:103FC0000127C0E7324629462046FFF711FE20B1FF
:103FD00020232366012000E00220012384F85D30C5
:103FE000002384F85C30BDE8F8830220F5E7022066
:103FF000F3E70120F1E70120EFE70120EDE70320DF
:10400000EBE70320E9E70320E7E70220EBE7000006
:10401000DFF834D0FDF748FC002103E00B4B5B5880
:10402000435004310A480B4B42189A42F6D30A4ACD
:1040300002E0002342F8043B084B9A42F9D300F017
:10404000F3FDFCF7B1FEFEE700800120D07200080E
:1040500000000020E0010020E0010020EC11002021
:10406000FEE72DE9FF4757EC106B002F0C46194671
:104070003B46BBBF07F100431F4600232D230B70B7
:104080000D9BDDF830A0914623F02008BCBF3246DE
:104090001646B8F1460F05D0B8F1450F00D10134EE
:1040A000022100E0032103AB019302AB009347EC34
:1040B000106B5346224600F077FEB8F1470F0546D5
:1040C00019D119F0010F0ED000EB040900220023D2
:1040D00030463946FCF7F8FC08B1CDF80C90302298
:1040E000039B4B451ED3039B0E9A5B1B2846136014
:1040F00004B0BDE8F087B8F1460F00EB0409E5D144
:104100000378302B0AD10022002330463946FCF7D1
:10411000DBFC18B9C4F10104CAF80040DAF8003039
:104120009944D3E7591C03911A70D9E7F7B50029D0
:10413000BABF49422D232B2309290270437029DD80
:104140000DF107031D460A271A46B1FBF7F607FBD8
:104150001614303402F8014C0C46632C03F1FF3383
:104160003146F1DC3031941E03F8011C411C23461A
:10417000AB420AD30DF109039B1AAC4288BF00235E
:1041800002330344181A03B0F0BD13F8016B01F8B1
:10419000016FEDE7302330318370C170031DF1E70B
:1041A0002DE9F04F8DB00C46DDF8588016461F46BD
:1041B000054600F0E9FC036804931846FCF758F83C
:1041C00000230A93D8F800300590073323F0070343
:1041D00003F1080294F818A0D4F800B0C8F8002041
:1041E000D3E9008929F000430793CDF81880C4E98A
:1041F0001289DDE906019C4B4FF0FF32FCF796FC7B
:1042000070BBDDE90601984B4FF0FF32FCF770FC04
:1042100030BB0022002340464946FCF75FFC10B14A
:104220002D2384F84330914A914BBAF1470F94BF44
:1042300090469846032323612BF0040323604FF03C
:104240000009009733460BAA2146284600F0D2F910
:10425000013040F08D804FF0FF300DB0BDE8F08FA1
:1042600042464B4640464946FCF760FC40B14B464F
:10427000002BBCBF2D2384F843307E4A7E4BD4E70D
:1042800063680AF0DF0206925A1C3BD10623636082
:104290004BF480620023226003930AABCDE901A3B3
:1042A00009AB0093616849EC108B0DF1230328469C
:1042B000FFF7D7FE069B0999472B804629D1C81CDA
:1042C00002DB6368994241DDAAF1020A5FFA8AFAC9
:1042D0000139524604F150000991FFF727FF0A9A6D
:1042E0001318012A8146236102DC2268D20701D516
:1042F000013323619DF82330002BA2D02D2384F8B5
:1043000043309EE7069A472AC2D1002BC0D1012331
:10431000BDE7BAF1650FDBD9BAF1660F18D10029F4
:1043200063680BDD216113B92268D00702D5013320
:104330000B442361A1654FF00009DBE713B9226844
:10434000D20701D50233F4E70123F2E74FF0670A01
:104350000A9B994205DB23682161D807EAD54B1CEB
:10436000E7E70029D4BFC1F1020201221344E0E7CC
:1043700023685A0507D42369424631462846B84780
:1043800001302BD167E7BAF1650F40F2DD80D4E947
:10439000120100220023FCF797FB002833D0374A94
:1043A000012331462846B84701303FF454AFDDE9D8
:1043B0000938434502DB2368D8070FD5DDE904231C
:1043C00031462846B84701303FF445AF4FF0000969
:1043D00008F1FF3804F11A0AC84509DC23689B0775
:1043E00000F10381E0680B9B9842B8BF184634E7A0
:1043F0000123524631462846B84701303FF42BAFDF
:1044000009F10109E8E7099B002B39DC1B4A01236C
:1044100031462846B84701303FF41DAFDDE9093980
:1044200059EA030302D12368D907D7D5DDE904236C
:1044300031462846B84701303FF40DAF4FF0000A2F
:1044400004F11A0B099B5B42534501DC4B4693E791
:1044500001235A4631462846B84701303FF4FBAEA7
:104460000AF1010AEEE700BFFFFFEF7F436F00088C
:10447000476F00084B6F00084F6F0008536F00082C
:10448000A36DDDF828A05345A8BF5346002B9946DD
:1044900036DC4FF0000B29EAE97904F11A02A36D2A
:1044A0000693A3EB09035B4531DC099B9A453ADC93
:1044B0002368DA0737D4099BAAEB0309069BAAEB0A
:1044C00003039945A8BF9946B9F1000F33DC4FF0BB
:1044D000000829EAE97904F11A0B099BAAEB030306
:1044E000A3EB090343457FF779AF01235A463146D1
:1044F0002846B84701303FF4AEAE08F10108ECE7BA
:10450000424631462846B8470130C2D1A3E60123CE
:10451000314628460692B84701303FF49CAE069AD1
:104520000BF1010BBBE7DDE9042331462846B84710
:104530000130C0D18FE6069A4B46424431462846A8
:10454000B8470130C3D186E6DDF828A0BAF1010FE3
:1045500001DCDB0736D50123424631462846B84701
:1045600001303FF478AEDDE9042331462846B847F0
:1045700001303FF470AED4E91201002200230AF1A9
:10458000FF3AFCF7A1FAC0B9534608F101023146DF
:104590002846B84701300CD15DE601235A46314622
:1045A0002846B84701303FF456AE08F10108D0451F
:1045B000F3DB4B4604F15002DFE64FF0000804F154
:1045C0001A0BF4E701234246E1E701234A4631464C
:1045D0002846B84701303FF43EAE08F10108E368D1
:1045E0000B995B1A4345F0DCFCE64FF0000804F140
:1045F0001909F4E72DE9F047164698468A680B69D1
:10460000DDF820909342B8BF1346336091F8432001
:1046100007460C460AB1013333602368990642BF4E
:10462000336802333360256815F0060506D104F1BE
:10463000190AE36832689B1AAB4226DC94F84330CF
:104640002268003B18BF012392062BD404F14302D9
:1046500041463846C84701301ED02368226903F01E
:104660000603042B02BFE5683368ED1AA3680CBF8C
:1046700025EAE57500259342C4BF9B1AED18002674
:104680001A34B5421AD1002008E0012352464146AF
:104690003846C847013003D14FF0FF30BDE8F087FE
:1046A0000135C6E7E1185A1C302081F84300224446
:1046B00094F8451082F843100233C7E701232246DD
:1046C00041463846C8470130E6D00136D9E70000F8
:1046D0002DE9FF470F7E0C9E782F914680460C46B1
:1046E0009A4601F1430207D8622F0AD8002F00F042
:1046F000D280582F00F0B98004F1420684F842704D
:104700003AE0A7F16303152BF6D801A151F823F085
:10471000694700087D470008F9460008F946000887
:10472000F9460008F94600087D470008F9460008E8
:10473000F9460008F9460008F94600087D480008D7
:10474000A747000837480008F9460008F94600085E
:104750009F480008F9460008A7470008F9460008E6
:10476000F94600083F48000833681A1D1B6832608C
:1047700004F1420684F8423001239DE0336820684A
:10478000191D3160060601D51D6803E04506FBD5FD
:10479000B3F90050002D03DA2D236D4284F8433025
:1047A00059480A2311E021683368080653F8045B6E
:1047B00002D4490648BFADB26F2F5348336014BFCF
:1047C0000A230823002184F843106668A660002E9F
:1047D000A2BF216821F0040121600DB9002E4BD049
:1047E0001646B5FBF3F103FB1157C75D06F8017DD3
:1047F0002F46BB420D46F4D9082B0BD12368DF07A7
:1048000008D5236961689942DEBF302306F8013C70
:1048100006F1FF36921B2261CDF800A04B4603AA99
:1048200021464046FFF7E6FE01304AD14FF0FF3007
:1048300004B0BDE8F087236843F0200323603348C9
:10484000782784F84570236831681F0651F8045BA7
:1048500002D45F0648BFADB23160D90744BF43F010
:10486000200323601DB11023ACE72748E9E7236844
:1048700023F020032360F6E71646BDE7336825687A
:104880006169181D30602E061B6801D5196002E0B1
:104890006806FBD51980002323611646BCE7336800
:1048A0001A1D32601E68626800213046FBF790FCDA
:1048B00008B1801B606063682361002384F8433083
:1048C000AAE72369324649464046D0470130ADD079
:1048D00023689B0713D4E068039B9842B8BF18462F
:1048E000A6E70123324649464046D04701309DD0D5
:1048F0000135E36803995B1AAB42F2DCEBE7002574
:1049000004F11906F5E700BF556F0008666F00084F
:10491000002310B50446C0E90033C0E904338360C6
:1049200081814366C2818361194608225C3000F0B0
:1049300014F90D4B63620D4BA3620D4BE3620D4BFB
:1049400023630D4B24629C4206D003F1680294421B
:1049500002D0D0339C4205D104F15800BDE810408C
:1049600000F086B910BD00BFD54A0008F74A00081C
:104970002F4B0008534B0008A0100020024A0349A7
:10498000034800F069B800BF18000020ED6500087A
:104990002800002041680C4B994210B5044601D014
:1049A00001F024FEA168094B994202D0204601F093
:1049B0001DFEE168064B994204D02046BDE8104038
:1049C00001F014BE10BD00BFA0100020081100208F
:1049D0007011002010B50B4B0B4C0C4A1A6020468E
:1049E00000220421FFF794FF04F16800012209214D
:1049F000FFF78EFF04F1D0000222BDE81040122123
:104A0000FFF786BFD8110020A01000207D490008C4
:104A1000014800F02EB900BFE1110020014800F06C
:104A200029B900BFE111002010B50446FFF7F0FFDF
:104A3000236A1BB1BDE81040FFF7F0BF044B2362AF
:104A4000044B1B68002BF5D1FFF7C4FFF2E700BF52
:104A500095490008D81100202DE9F84307468846FB
:104A600014460026D4E90195B9F1010905D5246859
:104A7000002CF7D13046BDE8F883AB89012B07D96C
:104A8000B5F90E30013303D029463846C0470643F6
:104A90006835E9E70EB400B59CB01DAB02900690F6
:104AA0006FF00041094807910491094953F8042B1C
:104AB00005910068019302A901F018FC029B0022F5
:104AC0001A701CB05DF804EB03B07047240000209E
:104AD0000802FFFF10B50C46B1F90E1000F07AF88D
:104AE0000028ABBF636DA3891B1823F48053ACBFB0
:104AF0006365A38110BD2DE9F0411F468B89DB055D
:104B000005460C46164605D5B1F90E1002230022C3
:104B100000F04EF8A389B4F90E1023F48053A3815A
:104B200032463B462846BDE8F04100F065B810B576
:104B30000C46B1F90E1000F03BF8431CA38915BFD9
:104B4000606523F4805343F48053A38118BFA3818D
:104B500010BDB1F90E1000F01BB802440346934299
:104B600000D1704703F8011BF9E710B5024614782D
:104B700013460132002CFAD1013B11F8012B03F846
:104B8000012F002AF9D110BD0048704764010020B0
:104B900038B5064D0023044608462B60FCF778FE26
:104BA000431C02D12B6803B1236038BDDC11002007
:104BB00038B5074D04460846114600222A601A46B9
:104BC000FCF770FE431C02D12B6803B1236038BD93
:104BD000DC11002038B5074D044608461146002276
:104BE0002A601A46FCF718FE431C02D12B6803B159
:104BF000236038BDDC11002038B5074D0446084657
:104C0000114600222A601A46FCF716FE431C02D108
:104C10002B6803B1236038BDDC110020014B1868FC
:104C2000704700BF2400002070B50D4D0D4C641B73
:104C3000A4100026A64209D10B4D0C4C02F066F8D8
:104C4000641BA4100026A64205D170BD55F8043B94
:104C500098470136EEE755F8043B98470136F2E7EE
:104C6000C0720008C0720008C0720008C472000858
:104C70007047704770470A44914200F1FF3300D1FA
:104C8000704710B511F8014B03F8014F9142F9D16B
:104C900010BD2DE9F74F03690C69A34207467EDB7F
:104CA000013C01F11408A30000F11405009305EB89
:104CB0008403019358F8243055F8242001339A4294
:104CC00008EB8409B2FBF3F62ED34FF0000AC4467A
:104CD000AE46D3465CF8043B98B206FB00A0020C3B
:104CE0001B0C06FB0323DEF8002080B292B2121ADE
:104CF0005A44DEF800004FEA134A9BB2C3EB22434A
:104D000003EB104392B242EA0342E1454EF8042B12
:104D10004FEA234BDED2009BEB582BB9019B043B9F
:104D20009D421A462FD33C61384601F07BF900289A
:104D300025DB2946002058F8042BD1F800C01FFAC3
:104D400082FE1FFA8CF3A3EB0E030344120CC2EB9A
:104D5000234202EB1C429BB243EA0243C14541F8A5
:104D6000043B4FEA2240E6D255F8242005EB8403A9
:104D700022B9043B9D421A460BD33C6101363046B2
:104D800003B0BDE8F08F1268043B002ACBD1013C90
:104D9000C6E71268043B002AEFD1013CEAE7002095
:104DA000EEE70000000000002DE9F04FC76999B060
:104DB0008DED020B55EC104B229E099183460E920D
:104DC00013937FB9102000F0FDFD0246CBF81C00C4
:104DD00020B9A74BEF21A74801F05AFCC0E90177A1
:104DE0000760C760DBF81C30196859B15A684A601F
:104DF000012393408B60584600F0DAFEDBF81C304C
:104E000000221A602B1EB9BF23F000430393002336
:104E10003360039F984BBCBF01223260BB4312D169
:104E2000139A42F20F731360C7F31303234300F086
:104E30004D85239BDFF854A2002B00F04F850AF12B
:104E4000030300F049BD9DED027B002251EC170BDE
:104E500000238DED0C7BFBF737FE804658B1139A8B
:104E600001231360239B13B1239A844B1360DFF853
:104E700020A200F033BD9DED0C0B16AA17A95846D1
:104E800001F080F9C7F30A568146002E77D00D9BBA
:104E9000CDF85080C3F31303DDE90C0143F07F53D9
:104EA00043F44013A6F2FF3619460022744BFBF779
:104EB000EBF969A3D3E90023FBF79EFB68A3D3E9D1
:104EC0000023FBF7E3F9044630460D46FBF72AFBC7
:104ED00065A3D3E90023FBF78FFB02460B46204670
:104EE0002946FBF7D3F904460D46FBF735FE0022B1
:104EF0000746002320462946FBF7F0FD40B138461F
:104F0000FBF710FB22462B46FBF7DEFD00B9013F05
:104F1000162F51D85B4B03EBC703D3E90023DDE920
:104F20000C01FBF7DBFD002848D0013F0023129362
:104F3000169B9B1B5A1E44BFC3F101080023089215
:104F400054BF4FF000080893002F39DB089B0F97E0
:104F50003B44089300230A93099B092B64D8052B33
:104F6000C4BF043B0993099BA3F10203CCBF0024F7
:104F70000124032B63D8DFE803F02A373555DDE938
:104F800016631E4406F23243202BC1BFC3F1400317
:104F90009F4006F2124324FA03F3D6BFC3F1200365
:104FA00047EA030004FA03F0FBF7ACFA0122A1F18F
:104FB000F873013E149277E70123B8E71290B7E740
:104FC0007B420A930023A8EB07080F93C4E7002352
:104FD0000B930E9B002B35DC0123009307931A469D
:104FE0000E920BE00123F3E700230B930E9BFB18BB
:104FF00000930133012B0793B8BF0123DBF81C009A
:105000000021042202F114059D421FD94160584637
:1050100000F08EFD824600283CD11B4B024640F238
:10502000AF11D8E60123E0E70124002309930B9494
:105030004FF0FF330093079300221223D0E70123A0
:105040000B93F5E70E9B00930793D7E701315200CE
:10505000D8E700BFAFF3008061436F63A787D23FFB
:10506000B3C8608B288AC63FFB799F501344D33F57
:10507000846F00089B6F00080000F07F546F0008E9
:105080000000F83F98700008F36F0008806F000878
:10509000536F0008DBF81C301860079B0E2B00F2E2
:1050A000A480002C00F0A180002F33DDAD4B07F071
:1050B0000F0203EBC20393ED007BF8058DED047B3B
:1050C0004FEA271416D5A84BDDE90C01D3E90823D4
:1050D000FBF7BCFBCDE9020104F00F040326A24D4F
:1050E00054B9DDE90423DDE90201FBF7AFFBCDE9AB
:1050F000020128E00226F2E7E10708D5DDE9040114
:10510000D5E90023FBF778FACDE9040101366410F4
:105110000835E5E700F0D2807C42924B924D04F0D6
:105120000F0203EBC203D3E90023DDE90C01FBF717
:1051300063FACDE90201241100230226002C40F07D
:10514000B280002BD3D1129BDDE90245002B00F089
:10515000B780864B002220462946FBF7BFFC00287B
:1051600000F0AE80079B002B00F0AA80009B002B74
:1051700037DD7B1E049320467D4B00222946FBF73A
:105180003BFACDE90201009C01363046FBF7CAF933
:10519000DDE90223FBF730FA764B0022FBF776F8C5
:1051A0000546A1F15076002C40F08D80DDE902012A
:1051B000714B0022FBF768F802460B46CDE902234B
:1051C0002A463346FBF7A8FC002840F08B82DDE935
:1051D00002012A4606F10043FBF780FC002840F05C
:1051E0002881DDE90C34CDE90234179B002BC0F295
:1051F0005A810E2F00F357815A4B03EBC70393EDEF
:10520000007B0E9B002B8DED007B03DA079B002BB0
:1052100040F30181DDE902455646DDE900232046E1
:105220002946FBF713FBFBF797FC8046FBF77AF95F
:10523000DDE90023FBF7E0F902460B46204629464C
:1052400008F13004FBF720F806F8014B079DA6EBA8
:105250000A04A54202460B4640F01781FBF716F8F8
:10526000DDE9002304460D46FBF756FC002840F01C
:10527000F980DDE9002320462946FBF725FC18B11B
:1052800018F0010F40F0EE804946584600F090FCBF
:1052900000233370139B01371F60239B002B00F00A
:1052A0001D831E601AE3E20705D5D5E90023FBF74D
:1052B000A3F901360123641008353FE7022642E7CF
:1052C000079C049761E7274B0B9903EBC40353E951
:1052D00002235444002953D028490020FBF7B6FA92
:1052E00033462A46FAF7D0FFCDE910015646DDE9EC
:1052F0000201FBF731FC0546FBF714F902460B46A9
:10530000DDE90201FAF7C0FF303502460B46CDE970
:10531000022306F8015BDDE91023FBF7DFFB002821
:1053200071D1DDE9022311490020FAF7ADFFDDE973
:105330001023FBF7D3FB002840F09580A6423FF4F2
:1053400050AFDDE910010A4B0022FBF755F9084B7D
:10535000CDE910010022DDE90201FBF74DF9CDE9AD
:105360000201C4E798700008707000080000F03F68
:105370000000244000001C40000014400000E03FFA
:1053800031462846FBF738F9CDE910011594564609
:10539000DDE90201FBF7E0FB0546FBF7C3F8024637
:1053A0000B46DDE90201FAF76FFF303506F8015BC5
:1053B00002460B46A642CDE902234FF0000224D15B
:1053C000AC4BDDE91001FAF761FF02460B46DDE95F
:1053D0000201FBF7A1FB002845D1DDE91023A54917
:1053E0000020FAF751FF02460B46DDE90201FBF708
:1053F00075FB00283FF4F5AE159E731E159316F845
:10540000013C302BF8D0049F3EE79B4BFBF7F4F8B0
:10541000CDE90201BCE70CD1984B0022DDE9000187
:10542000FBF7EAF8DDE90223FBF76CFB002800F04C
:105430005781002425460E9BDB43049356460027E4
:105440002146584600F0B4FB002DDCD02FB1AF420E
:1054500003D03946584600F0ABFB2946584600F0C9
:10546000A7FBD0E7049733461E4613F8012D392ACF
:1054700007D19A45F8D1049A0132049230228AF871
:1054800000201A7801321A70BDE77B4B0022FBF72F
:10549000B3F80022002304460D46FBF715FB002855
:1054A0003FF4BBAEF0E60B9A002A00F0DB80099ACD
:1054B000012A00F3BF80149A002A00F0B78003F29B
:1054C00033430A9C4646089A01211A445846984498
:1054D000089200F021FC05465EB1089B002B08DD18
:1054E000B342089AA8BF3346A8EB0308F61AD31AAA
:1054F00008930A9BF3B10B9B002B00F0B7808CB193
:1055000029462246584600F0C7FC4A460146054651
:10551000584600F017FC49460490584600F048FBF6
:10552000049B99460A9B1A1B04D04946584600F032
:10553000B3FC81460121584600F0EEFB0F9B044668
:10554000002B00F0CF811A460146584600F0A4FC1B
:10555000099B012B044600F39580029B002B40F031
:105560008780039BC3F31303002B40F08980039BC8
:1055700023F000431B0D1B052BB1089B013308933F
:1055800008F1010801230A930F9B002B00F0B08162
:10559000236904EB8303186900F072FBC0F120005B
:1055A000089B184410F01F0077D0C0F12003042B93
:1055B0006BDD089BC0F11C00034480440644089343
:1055C000B8F1000F05DD49464246584600F0BEFCE2
:1055D0008146089B002B05DD21461A46584600F0FF
:1055E000B5FC0446129B002B59D02146484600F0DA
:1055F00019FD002853DA7B1E0493494600230A2232
:10560000584600F0F7FA0B9B8146002B00F07281A0
:10561000002329460A22584600F0ECFA009B002B92
:10562000054667DC099B022B41DC63E0169BC3F156
:10563000360346E7079B5C1E0A9BA342BFBF0A9B3B
:105640000F9A0A94E31AB4BFD2181C1B079BBCBF65
:105650000F920024002BB5BFA8EB0306079B002385
:10566000464630E70A9C0B9D464635E70A9A5CE7BA
:10567000002388E70000E03F0000244000001440C1
:10568000029B80E700230A9382E799D0089A1C3393
:105690001A4498441E44089292E70346F6E7079B93
:1056A0000497002B20DC0093099B022B1EDD009B3E
:1056B000002B7FF4C0AE21460522584600F09AFA2E
:1056C00001460446484600F0ADFC00287FF7B3AE23
:1056D0005646312306F8013B049B01330493AEE6A2
:1056E000079C04972546F3E7079B00930B9B002B31
:1056F00000F00481002E05DD29463246584600F0B0
:1057000025FC05460A9B002B5AD06968584600F0D4
:105710000FFA064628B9844B024640F2EF21FFF704
:105720005ABB2A690232920005F10C010C30FFF7D6
:10573000A2FA01223146584600F008FC0AF10103A2
:105740000793009B53440B93029B03F001032F46E6
:105750000A930546079B2146013B48460093FFF705
:1057600098FA3946029000F13008484600F05AFC99
:105770002A4608902146584600F070FCC26806464A
:1057800002BB0146484600F04DFC024631465846F1
:105790000E9200F00DFA099B0E9A079E43EA020151
:1057A0000A9B194310D1B8F1390F29D0089B002B5F
:1057B00002DD029B03F13108009B83F800803FE685
:1057C0002846BBE70122E1E7089B002B04DB09998F
:1057D0000B430A990B4320D1002AEDDD49460122F3
:1057E000584600F0B3FB2146814600F01BFC002820
:1057F00003DCE1D118F0010FDED0B8F1390FD8D1B8
:10580000009A3923137033461E46013B16F8012CCB
:10581000392A52D001321A7012E6002A07DDB8F197
:10582000390FEDD0009A08F10103137008E6079BC9
:10583000079A03F8018C0B9B934228D0494600231A
:105840000A22584600F0D6F9AF4281464FF00003D5
:105850004FF00A023946584607D100F0CBF9074607
:105860000546079B0133079374E700F0C3F9294607
:10587000074600230A22584600F0BCF90546F0E727
:10588000009B002BCCBF1E460126564400274946EC
:105890000122584600F05AFB2146814600F0C2FB27
:1058A0000028B0DC02D118F0010FACD133461E46FF
:1058B00013F8012D302AFAD0C2E59A45A4D1049BF1
:1058C0000133049331238AF80030B9E5239BDFF8D4
:1058D0005CA01BB10AF10803239A1360504619B06B
:1058E000BDE8F08F099B012B7FF737AE0F9B0A9322
:1058F000012055E6009B002B7FF7D6AE5646214689
:105900004846FFF7C6F900F1300806F8018B009B06
:10591000A6EB0A029342B3DD494600230A22584609
:1059200000F068F98146EAE7F36F0008776F000836
:1059300038B50546002941D051F8043C0C1F002B16
:10594000B8BFE41800F0E8F81D4A136833B9636083
:1059500014602846BDE8384000F0E4B8A34208D9F6
:10596000206821188B4201BF19685B680918216003
:10597000EDE71A465B680BB1A342FAD911685018DB
:10598000A0420BD120680144501883421160E0D13D
:1059900018685B68536008441060DAE702D90C238A
:1059A0002B60D6E7206821188B4204BF19685B681A
:1059B000636004BF091821605460CAE738BD00BFA6
:1059C000E8110020024B0146186800F025B800BF1E
:1059D0002400002070B50F4E0C463168054611B901
:1059E00000F046FE30602146284600F041FE431C90
:1059F00003D14FF0FF34204670BDC41C24F00304D3
:105A0000A042F8D0211A284600F032FE0130F2D12F
:105A1000EFE700BFE41100202DE9F843CD1C25F08D
:105A2000030508350C2D38BF0C25002D064601DB7B
:105A3000A94204D90C2333600020BDE8F883DFF8C5
:105A4000D48000F069F8D8F800301C4644BB2946E1
:105A50003046FFF7BFFF431C044658D1D8F800403A
:105A60002746002F43D1002C4BD0236839463046BF
:105A700004EB030900F0FCFD814542D121686D1A59
:105A800029463046FFF7A6FF01303AD023682B4461
:105A90002360D8F800305A6862BBC8F800700FE085
:105AA0002268521B20D40B2A17D96119A342256002
:105AB00018BF5960636808BFC8F8001062514B6096
:105AC000304600F02FF804F10B00231D20F00700F2
:105AD000C21A1CBF1B1AA350AFE76268A3420CBFD7
